{
  "_format": "hh-sol-artifact-1",
  "contractName": "LaunchpadIDO",
  "sourceName": "contracts/LaunchpadIDO/LaunchpadIDO.sol",
  "abi": [
    {
      "anonymous": false,
      "inputs": [
        {
          "indexed": false,
          "internalType": "uint256",
          "name": "newRate",
          "type": "uint256"
        }
      ],
      "name": "CapChanged",
      "type": "event"
    },
    {
      "anonymous": false,
      "inputs": [
        {
          "indexed": false,
          "internalType": "uint256",
          "name": "percent",
          "type": "uint256"
        },
        {
          "indexed": false,
          "internalType": "uint256",
          "name": "newTime",
          "type": "uint256"
        },
        {
          "indexed": false,
          "internalType": "uint256",
          "name": "claimIdx",
          "type": "uint256"
        }
      ],
      "name": "ClaimDelayed",
      "type": "event"
    },
    {
      "anonymous": false,
      "inputs": [
        {
          "indexed": false,
          "internalType": "uint256",
          "name": "percent",
          "type": "uint256"
        },
        {
          "indexed": false,
          "internalType": "uint256",
          "name": "newTime",
          "type": "uint256"
        },
        {
          "indexed": false,
          "internalType": "uint256",
          "name": "claimIdx",
          "type": "uint256"
        }
      ],
      "name": "ClaimReleased",
      "type": "event"
    },
    {
      "anonymous": false,
      "inputs": [
        {
          "indexed": true,
          "internalType": "address",
          "name": "account",
          "type": "address"
        },
        {
          "indexed": false,
          "internalType": "uint256",
          "name": "amount",
          "type": "uint256"
        },
        {
          "indexed": false,
          "internalType": "uint256",
          "name": "percent",
          "type": "uint256"
        },
        {
          "indexed": false,
          "internalType": "uint256",
          "name": "claimIdx",
          "type": "uint256"
        }
      ],
      "name": "Claimed",
      "type": "event"
    },
    {
      "anonymous": false,
      "inputs": [
        {
          "indexed": false,
          "internalType": "bool",
          "name": "status",
          "type": "bool"
        }
      ],
      "name": "ClaimingPaused",
      "type": "event"
    },
    {
      "anonymous": false,
      "inputs": [
        {
          "indexed": false,
          "internalType": "uint256",
          "name": "duration",
          "type": "uint256"
        }
      ],
      "name": "DurationChanged",
      "type": "event"
    },
    {
      "anonymous": false,
      "inputs": [
        {
          "indexed": false,
          "internalType": "uint256",
          "name": "duration",
          "type": "uint256"
        }
      ],
      "name": "FCFSDurationChanged",
      "type": "event"
    },
    {
      "anonymous": false,
      "inputs": [
        {
          "indexed": false,
          "internalType": "address",
          "name": "tokenAddress",
          "type": "address"
        }
      ],
      "name": "FundTokenChanged",
      "type": "event"
    },
    {
      "anonymous": false,
      "inputs": [
        {
          "indexed": false,
          "internalType": "bool",
          "name": "status",
          "type": "bool"
        }
      ],
      "name": "LevelsEnabled",
      "type": "event"
    },
    {
      "anonymous": false,
      "inputs": [
        {
          "indexed": false,
          "internalType": "uint256",
          "name": "value",
          "type": "uint256"
        }
      ],
      "name": "MaxChanged",
      "type": "event"
    },
    {
      "anonymous": false,
      "inputs": [
        {
          "indexed": false,
          "internalType": "uint256",
          "name": "value",
          "type": "uint256"
        }
      ],
      "name": "MinChanged",
      "type": "event"
    },
    {
      "anonymous": false,
      "inputs": [
        {
          "indexed": true,
          "internalType": "address",
          "name": "previousOwner",
          "type": "address"
        },
        {
          "indexed": true,
          "internalType": "address",
          "name": "newOwner",
          "type": "address"
        }
      ],
      "name": "OwnershipTransferred",
      "type": "event"
    },
    {
      "anonymous": false,
      "inputs": [
        {
          "indexed": false,
          "internalType": "uint256",
          "name": "newRate",
          "type": "uint256"
        }
      ],
      "name": "RateChanged",
      "type": "event"
    },
    {
      "anonymous": false,
      "inputs": [
        {
          "indexed": true,
          "internalType": "bytes32",
          "name": "role",
          "type": "bytes32"
        },
        {
          "indexed": true,
          "internalType": "bytes32",
          "name": "previousAdminRole",
          "type": "bytes32"
        },
        {
          "indexed": true,
          "internalType": "bytes32",
          "name": "newAdminRole",
          "type": "bytes32"
        }
      ],
      "name": "RoleAdminChanged",
      "type": "event"
    },
    {
      "anonymous": false,
      "inputs": [
        {
          "indexed": true,
          "internalType": "bytes32",
          "name": "role",
          "type": "bytes32"
        },
        {
          "indexed": true,
          "internalType": "address",
          "name": "account",
          "type": "address"
        },
        {
          "indexed": true,
          "internalType": "address",
          "name": "sender",
          "type": "address"
        }
      ],
      "name": "RoleGranted",
      "type": "event"
    },
    {
      "anonymous": false,
      "inputs": [
        {
          "indexed": true,
          "internalType": "bytes32",
          "name": "role",
          "type": "bytes32"
        },
        {
          "indexed": true,
          "internalType": "address",
          "name": "account",
          "type": "address"
        },
        {
          "indexed": true,
          "internalType": "address",
          "name": "sender",
          "type": "address"
        }
      ],
      "name": "RoleRevoked",
      "type": "event"
    },
    {
      "anonymous": false,
      "inputs": [
        {
          "indexed": false,
          "internalType": "bool",
          "name": "status",
          "type": "bool"
        }
      ],
      "name": "SaleOpenedForAllLevels",
      "type": "event"
    },
    {
      "anonymous": false,
      "inputs": [
        {
          "indexed": false,
          "internalType": "uint256",
          "name": "time",
          "type": "uint256"
        }
      ],
      "name": "StartChanged",
      "type": "event"
    },
    {
      "anonymous": false,
      "inputs": [
        {
          "indexed": true,
          "internalType": "address",
          "name": "beneficiary",
          "type": "address"
        },
        {
          "indexed": false,
          "internalType": "uint256",
          "name": "value",
          "type": "uint256"
        },
        {
          "indexed": false,
          "internalType": "uint256",
          "name": "amount",
          "type": "uint256"
        }
      ],
      "name": "TokensPurchased",
      "type": "event"
    },
    {
      "inputs": [],
      "name": "DEFAULT_ADMIN_ROLE",
      "outputs": [
        {
          "internalType": "bytes32",
          "name": "",
          "type": "bytes32"
        }
      ],
      "stateMutability": "view",
      "type": "function"
    },
    {
      "inputs": [
        {
          "internalType": "address",
          "name": "account",
          "type": "address"
        }
      ],
      "name": "balanceOf",
      "outputs": [
        {
          "internalType": "uint256",
          "name": "",
          "type": "uint256"
        }
      ],
      "stateMutability": "view",
      "type": "function"
    },
    {
      "inputs": [
        {
          "internalType": "address",
          "name": "",
          "type": "address"
        }
      ],
      "name": "balances",
      "outputs": [
        {
          "internalType": "uint256",
          "name": "",
          "type": "uint256"
        }
      ],
      "stateMutability": "view",
      "type": "function"
    },
    {
      "inputs": [
        {
          "internalType": "uint256",
          "name": "amount",
          "type": "uint256"
        },
        {
          "internalType": "uint256",
          "name": "userWeight",
          "type": "uint256"
        },
        {
          "internalType": "bytes32[]",
          "name": "merkleProof",
          "type": "bytes32[]"
        }
      ],
      "name": "buyTokens",
      "outputs": [],
      "stateMutability": "payable",
      "type": "function"
    },
    {
      "inputs": [
        {
          "internalType": "uint256",
          "name": "value",
          "type": "uint256"
        },
        {
          "internalType": "uint256",
          "name": "amount",
          "type": "uint256"
        },
        {
          "internalType": "uint256",
          "name": "userWeight",
          "type": "uint256"
        },
        {
          "internalType": "bytes32[]",
          "name": "merkleProof",
          "type": "bytes32[]"
        }
      ],
      "name": "buyTokens",
      "outputs": [],
      "stateMutability": "nonpayable",
      "type": "function"
    },
    {
      "inputs": [
        {
          "internalType": "uint256",
          "name": "_tokenAmount",
          "type": "uint256"
        }
      ],
      "name": "calculateNativeRequiredAmount",
      "outputs": [
        {
          "internalType": "uint256",
          "name": "",
          "type": "uint256"
        }
      ],
      "stateMutability": "view",
      "type": "function"
    },
    {
      "inputs": [
        {
          "internalType": "uint256",
          "name": "purchaseAmountWei",
          "type": "uint256"
        }
      ],
      "name": "calculatePurchaseAmount",
      "outputs": [
        {
          "internalType": "uint256",
          "name": "",
          "type": "uint256"
        }
      ],
      "stateMutability": "view",
      "type": "function"
    },
    {
      "inputs": [
        {
          "internalType": "uint256",
          "name": "purchaseAmountUSDWei",
          "type": "uint256"
        }
      ],
      "name": "calculatePurchaseAmountUSD",
      "outputs": [
        {
          "internalType": "uint256",
          "name": "",
          "type": "uint256"
        }
      ],
      "stateMutability": "view",
      "type": "function"
    },
    {
      "inputs": [],
      "name": "cancelIdo",
      "outputs": [],
      "stateMutability": "nonpayable",
      "type": "function"
    },
    {
      "inputs": [
        {
          "internalType": "address",
          "name": "account",
          "type": "address"
        },
        {
          "internalType": "uint256",
          "name": "idx",
          "type": "uint256"
        }
      ],
      "name": "claim",
      "outputs": [],
      "stateMutability": "nonpayable",
      "type": "function"
    },
    {
      "inputs": [
        {
          "internalType": "address",
          "name": "",
          "type": "address"
        }
      ],
      "name": "claimed",
      "outputs": [
        {
          "internalType": "uint256",
          "name": "",
          "type": "uint256"
        }
      ],
      "stateMutability": "view",
      "type": "function"
    },
    {
      "inputs": [],
      "name": "claimedTokens",
      "outputs": [
        {
          "internalType": "uint256",
          "name": "",
          "type": "uint256"
        }
      ],
      "stateMutability": "view",
      "type": "function"
    },
    {
      "inputs": [
        {
          "internalType": "uint256",
          "name": "",
          "type": "uint256"
        }
      ],
      "name": "claims",
      "outputs": [
        {
          "internalType": "uint256",
          "name": "unlockTime",
          "type": "uint256"
        },
        {
          "internalType": "uint256",
          "name": "percent",
          "type": "uint256"
        }
      ],
      "stateMutability": "view",
      "type": "function"
    },
    {
      "inputs": [],
      "name": "dataUri",
      "outputs": [
        {
          "internalType": "string",
          "name": "",
          "type": "string"
        }
      ],
      "stateMutability": "view",
      "type": "function"
    },
    {
      "inputs": [
        {
          "internalType": "uint256",
          "name": "claimIdx",
          "type": "uint256"
        },
        {
          "internalType": "uint256",
          "name": "newUnlockTime",
          "type": "uint256"
        }
      ],
      "name": "delayClaim",
      "outputs": [],
      "stateMutability": "nonpayable",
      "type": "function"
    },
    {
      "inputs": [],
      "name": "duration",
      "outputs": [
        {
          "internalType": "uint256",
          "name": "",
          "type": "uint256"
        }
      ],
      "stateMutability": "view",
      "type": "function"
    },
    {
      "inputs": [],
      "name": "fcfsDuration",
      "outputs": [
        {
          "internalType": "uint256",
          "name": "",
          "type": "uint256"
        }
      ],
      "stateMutability": "view",
      "type": "function"
    },
    {
      "inputs": [],
      "name": "firstPurchaseBlockN",
      "outputs": [
        {
          "internalType": "uint256",
          "name": "",
          "type": "uint256"
        }
      ],
      "stateMutability": "view",
      "type": "function"
    },
    {
      "inputs": [],
      "name": "forceLevelsOpenAll",
      "outputs": [
        {
          "internalType": "bool",
          "name": "",
          "type": "bool"
        }
      ],
      "stateMutability": "view",
      "type": "function"
    },
    {
      "inputs": [],
      "name": "fundByTokens",
      "outputs": [
        {
          "internalType": "bool",
          "name": "",
          "type": "bool"
        }
      ],
      "stateMutability": "view",
      "type": "function"
    },
    {
      "inputs": [],
      "name": "fundToken",
      "outputs": [
        {
          "internalType": "contract IERC20",
          "name": "",
          "type": "address"
        }
      ],
      "stateMutability": "view",
      "type": "function"
    },
    {
      "inputs": [],
      "name": "getAllClaims",
      "outputs": [
        {
          "components": [
            {
              "internalType": "uint256",
              "name": "unlockTime",
              "type": "uint256"
            },
            {
              "internalType": "uint256",
              "name": "percent",
              "type": "uint256"
            }
          ],
          "internalType": "struct WithClaimer.Claim[]",
          "name": "",
          "type": "tuple[]"
        }
      ],
      "stateMutability": "view",
      "type": "function"
    },
    {
      "inputs": [
        {
          "internalType": "address",
          "name": "account",
          "type": "address"
        }
      ],
      "name": "getClaimableAccountAmount",
      "outputs": [
        {
          "internalType": "uint256",
          "name": "",
          "type": "uint256"
        }
      ],
      "stateMutability": "view",
      "type": "function"
    },
    {
      "inputs": [
        {
          "internalType": "address",
          "name": "account",
          "type": "address"
        }
      ],
      "name": "getClaims",
      "outputs": [
        {
          "internalType": "uint256[]",
          "name": "",
          "type": "uint256[]"
        },
        {
          "internalType": "uint256[]",
          "name": "",
          "type": "uint256[]"
        },
        {
          "internalType": "uint256[]",
          "name": "",
          "type": "uint256[]"
        },
        {
          "internalType": "bool[]",
          "name": "",
          "type": "bool[]"
        },
        {
          "internalType": "uint256[]",
          "name": "",
          "type": "uint256[]"
        }
      ],
      "stateMutability": "view",
      "type": "function"
    },
    {
      "inputs": [],
      "name": "getEndTime",
      "outputs": [
        {
          "internalType": "uint256",
          "name": "",
          "type": "uint256"
        }
      ],
      "stateMutability": "view",
      "type": "function"
    },
    {
      "inputs": [],
      "name": "getMinMaxLimits",
      "outputs": [
        {
          "internalType": "uint256",
          "name": "",
          "type": "uint256"
        },
        {
          "internalType": "uint256",
          "name": "",
          "type": "uint256"
        }
      ],
      "stateMutability": "view",
      "type": "function"
    },
    {
      "inputs": [],
      "name": "getNativePriceUSD",
      "outputs": [
        {
          "internalType": "int256",
          "name": "",
          "type": "int256"
        }
      ],
      "stateMutability": "view",
      "type": "function"
    },
    {
      "inputs": [],
      "name": "getParticipants",
      "outputs": [
        {
          "internalType": "address[]",
          "name": "",
          "type": "address[]"
        },
        {
          "internalType": "uint256[]",
          "name": "",
          "type": "uint256[]"
        }
      ],
      "stateMutability": "view",
      "type": "function"
    },
    {
      "inputs": [],
      "name": "getRateNative",
      "outputs": [
        {
          "internalType": "uint256",
          "name": "",
          "type": "uint256"
        }
      ],
      "stateMutability": "view",
      "type": "function"
    },
    {
      "inputs": [
        {
          "internalType": "address",
          "name": "account",
          "type": "address"
        }
      ],
      "name": "getRemainingAccountAmount",
      "outputs": [
        {
          "internalType": "uint256",
          "name": "",
          "type": "uint256"
        }
      ],
      "stateMutability": "view",
      "type": "function"
    },
    {
      "inputs": [
        {
          "internalType": "bytes32",
          "name": "role",
          "type": "bytes32"
        }
      ],
      "name": "getRoleAdmin",
      "outputs": [
        {
          "internalType": "bytes32",
          "name": "",
          "type": "bytes32"
        }
      ],
      "stateMutability": "view",
      "type": "function"
    },
    {
      "inputs": [
        {
          "internalType": "uint256",
          "name": "userWeight",
          "type": "uint256"
        }
      ],
      "name": "getUserLevelState",
      "outputs": [
        {
          "internalType": "uint256",
          "name": "",
          "type": "uint256"
        },
        {
          "internalType": "uint256",
          "name": "",
          "type": "uint256"
        }
      ],
      "stateMutability": "view",
      "type": "function"
    },
    {
      "inputs": [
        {
          "internalType": "bytes32",
          "name": "role",
          "type": "bytes32"
        },
        {
          "internalType": "address",
          "name": "account",
          "type": "address"
        }
      ],
      "name": "grantRole",
      "outputs": [],
      "stateMutability": "nonpayable",
      "type": "function"
    },
    {
      "inputs": [
        {
          "internalType": "bytes32",
          "name": "role",
          "type": "bytes32"
        },
        {
          "internalType": "address",
          "name": "account",
          "type": "address"
        }
      ],
      "name": "hasRole",
      "outputs": [
        {
          "internalType": "bool",
          "name": "",
          "type": "bool"
        }
      ],
      "stateMutability": "view",
      "type": "function"
    },
    {
      "inputs": [],
      "name": "id",
      "outputs": [
        {
          "internalType": "string",
          "name": "",
          "type": "string"
        }
      ],
      "stateMutability": "view",
      "type": "function"
    },
    {
      "inputs": [
        {
          "internalType": "string",
          "name": "_id",
          "type": "string"
        },
        {
          "internalType": "uint256",
          "name": "_startTime",
          "type": "uint256"
        },
        {
          "internalType": "uint256",
          "name": "_duration",
          "type": "uint256"
        },
        {
          "internalType": "uint256",
          "name": "_rate",
          "type": "uint256"
        },
        {
          "internalType": "uint256",
          "name": "_tokensForSale",
          "type": "uint256"
        },
        {
          "internalType": "address",
          "name": "_fundToken",
          "type": "address"
        },
        {
          "internalType": "address",
          "name": "_priceFeed",
          "type": "address"
        },
        {
          "internalType": "bool",
          "name": "_levelsEnabled",
          "type": "bool"
        }
      ],
      "name": "initialize",
      "outputs": [],
      "stateMutability": "nonpayable",
      "type": "function"
    },
    {
      "inputs": [],
      "name": "isCanceled",
      "outputs": [
        {
          "internalType": "bool",
          "name": "",
          "type": "bool"
        }
      ],
      "stateMutability": "view",
      "type": "function"
    },
    {
      "inputs": [
        {
          "internalType": "address",
          "name": "",
          "type": "address"
        },
        {
          "internalType": "uint256",
          "name": "",
          "type": "uint256"
        }
      ],
      "name": "isClaimed",
      "outputs": [
        {
          "internalType": "uint256",
          "name": "",
          "type": "uint256"
        }
      ],
      "stateMutability": "view",
      "type": "function"
    },
    {
      "inputs": [],
      "name": "isFcfsTime",
      "outputs": [
        {
          "internalType": "bool",
          "name": "",
          "type": "bool"
        }
      ],
      "stateMutability": "view",
      "type": "function"
    },
    {
      "inputs": [],
      "name": "isLive",
      "outputs": [
        {
          "internalType": "bool",
          "name": "",
          "type": "bool"
        }
      ],
      "stateMutability": "view",
      "type": "function"
    },
    {
      "inputs": [],
      "name": "isPaused",
      "outputs": [
        {
          "internalType": "bool",
          "name": "",
          "type": "bool"
        }
      ],
      "stateMutability": "view",
      "type": "function"
    },
    {
      "inputs": [],
      "name": "lastPurchaseBlockN",
      "outputs": [
        {
          "internalType": "uint256",
          "name": "",
          "type": "uint256"
        }
      ],
      "stateMutability": "view",
      "type": "function"
    },
    {
      "inputs": [],
      "name": "levelsEnabled",
      "outputs": [
        {
          "internalType": "bool",
          "name": "",
          "type": "bool"
        }
      ],
      "stateMutability": "view",
      "type": "function"
    },
    {
      "inputs": [],
      "name": "levelsOpenAll",
      "outputs": [
        {
          "internalType": "bool",
          "name": "",
          "type": "bool"
        }
      ],
      "stateMutability": "view",
      "type": "function"
    },
    {
      "inputs": [],
      "name": "maxSell",
      "outputs": [
        {
          "internalType": "uint256",
          "name": "",
          "type": "uint256"
        }
      ],
      "stateMutability": "view",
      "type": "function"
    },
    {
      "inputs": [],
      "name": "merkleRoot",
      "outputs": [
        {
          "internalType": "bytes32",
          "name": "",
          "type": "bytes32"
        }
      ],
      "stateMutability": "view",
      "type": "function"
    },
    {
      "inputs": [],
      "name": "minSell",
      "outputs": [
        {
          "internalType": "uint256",
          "name": "",
          "type": "uint256"
        }
      ],
      "stateMutability": "view",
      "type": "function"
    },
    {
      "inputs": [
        {
          "internalType": "bool",
          "name": "status",
          "type": "bool"
        }
      ],
      "name": "openForAllLevels",
      "outputs": [],
      "stateMutability": "nonpayable",
      "type": "function"
    },
    {
      "inputs": [],
      "name": "owner",
      "outputs": [
        {
          "internalType": "address",
          "name": "",
          "type": "address"
        }
      ],
      "stateMutability": "view",
      "type": "function"
    },
    {
      "inputs": [
        {
          "internalType": "bool",
          "name": "status",
          "type": "bool"
        }
      ],
      "name": "pauseClaiming",
      "outputs": [],
      "stateMutability": "nonpayable",
      "type": "function"
    },
    {
      "inputs": [],
      "name": "raised",
      "outputs": [
        {
          "internalType": "uint256",
          "name": "",
          "type": "uint256"
        }
      ],
      "stateMutability": "view",
      "type": "function"
    },
    {
      "inputs": [],
      "name": "rate",
      "outputs": [
        {
          "internalType": "uint256",
          "name": "",
          "type": "uint256"
        }
      ],
      "stateMutability": "view",
      "type": "function"
    },
    {
      "inputs": [
        {
          "internalType": "uint256",
          "name": "claimIdx",
          "type": "uint256"
        }
      ],
      "name": "releaseClaim",
      "outputs": [],
      "stateMutability": "nonpayable",
      "type": "function"
    },
    {
      "inputs": [],
      "name": "renounceOwnership",
      "outputs": [],
      "stateMutability": "nonpayable",
      "type": "function"
    },
    {
      "inputs": [
        {
          "internalType": "bytes32",
          "name": "role",
          "type": "bytes32"
        },
        {
          "internalType": "address",
          "name": "account",
          "type": "address"
        }
      ],
      "name": "renounceRole",
      "outputs": [],
      "stateMutability": "nonpayable",
      "type": "function"
    },
    {
      "inputs": [
        {
          "internalType": "bytes32",
          "name": "role",
          "type": "bytes32"
        },
        {
          "internalType": "address",
          "name": "account",
          "type": "address"
        }
      ],
      "name": "revokeRole",
      "outputs": [],
      "stateMutability": "nonpayable",
      "type": "function"
    },
    {
      "inputs": [
        {
          "internalType": "address",
          "name": "_token",
          "type": "address"
        },
        {
          "internalType": "uint256[]",
          "name": "times",
          "type": "uint256[]"
        },
        {
          "internalType": "uint256[]",
          "name": "percents",
          "type": "uint256[]"
        }
      ],
      "name": "setClaimInfo",
      "outputs": [],
      "stateMutability": "nonpayable",
      "type": "function"
    },
    {
      "inputs": [
        {
          "internalType": "uint256",
          "name": "newDuration",
          "type": "uint256"
        }
      ],
      "name": "setDuration",
      "outputs": [],
      "stateMutability": "nonpayable",
      "type": "function"
    },
    {
      "inputs": [
        {
          "internalType": "uint256",
          "name": "newDuration",
          "type": "uint256"
        }
      ],
      "name": "setFCFSDuration",
      "outputs": [],
      "stateMutability": "nonpayable",
      "type": "function"
    },
    {
      "inputs": [
        {
          "internalType": "address",
          "name": "tokenAddress",
          "type": "address"
        }
      ],
      "name": "setFundToken",
      "outputs": [],
      "stateMutability": "nonpayable",
      "type": "function"
    },
    {
      "inputs": [
        {
          "internalType": "uint256",
          "name": "value",
          "type": "uint256"
        }
      ],
      "name": "setMax",
      "outputs": [],
      "stateMutability": "nonpayable",
      "type": "function"
    },
    {
      "inputs": [
        {
          "internalType": "uint256",
          "name": "value",
          "type": "uint256"
        }
      ],
      "name": "setMin",
      "outputs": [],
      "stateMutability": "nonpayable",
      "type": "function"
    },
    {
      "inputs": [
        {
          "internalType": "address",
          "name": "_priceFeed",
          "type": "address"
        }
      ],
      "name": "setPriceAggregator",
      "outputs": [],
      "stateMutability": "nonpayable",
      "type": "function"
    },
    {
      "inputs": [
        {
          "internalType": "uint256",
          "name": "newRate",
          "type": "uint256"
        }
      ],
      "name": "setRate",
      "outputs": [],
      "stateMutability": "nonpayable",
      "type": "function"
    },
    {
      "inputs": [
        {
          "internalType": "uint256",
          "name": "newTime",
          "type": "uint256"
        }
      ],
      "name": "setStartTime",
      "outputs": [],
      "stateMutability": "nonpayable",
      "type": "function"
    },
    {
      "inputs": [
        {
          "internalType": "bytes32",
          "name": "_root",
          "type": "bytes32"
        },
        {
          "internalType": "string",
          "name": "_dataUri",
          "type": "string"
        }
      ],
      "name": "setTierUsersRoot",
      "outputs": [],
      "stateMutability": "nonpayable",
      "type": "function"
    },
    {
      "inputs": [
        {
          "internalType": "uint256",
          "name": "_fcfsDuration",
          "type": "uint256"
        }
      ],
      "name": "setTimeline",
      "outputs": [],
      "stateMutability": "nonpayable",
      "type": "function"
    },
    {
      "inputs": [
        {
          "internalType": "address",
          "name": "_token",
          "type": "address"
        }
      ],
      "name": "setToken",
      "outputs": [],
      "stateMutability": "nonpayable",
      "type": "function"
    },
    {
      "inputs": [
        {
          "internalType": "uint256",
          "name": "_tokensForSale",
          "type": "uint256"
        }
      ],
      "name": "setTokensForSale",
      "outputs": [],
      "stateMutability": "nonpayable",
      "type": "function"
    },
    {
      "inputs": [],
      "name": "startTime",
      "outputs": [
        {
          "internalType": "uint256",
          "name": "",
          "type": "uint256"
        }
      ],
      "stateMutability": "view",
      "type": "function"
    },
    {
      "inputs": [
        {
          "internalType": "bytes4",
          "name": "interfaceId",
          "type": "bytes4"
        }
      ],
      "name": "supportsInterface",
      "outputs": [
        {
          "internalType": "bool",
          "name": "",
          "type": "bool"
        }
      ],
      "stateMutability": "view",
      "type": "function"
    },
    {
      "inputs": [
        {
          "internalType": "bool",
          "name": "status",
          "type": "bool"
        }
      ],
      "name": "toggleLevels",
      "outputs": [],
      "stateMutability": "nonpayable",
      "type": "function"
    },
    {
      "inputs": [],
      "name": "token",
      "outputs": [
        {
          "internalType": "contract IERC20",
          "name": "",
          "type": "address"
        }
      ],
      "stateMutability": "view",
      "type": "function"
    },
    {
      "inputs": [],
      "name": "tokensForSale",
      "outputs": [
        {
          "internalType": "uint256",
          "name": "",
          "type": "uint256"
        }
      ],
      "stateMutability": "view",
      "type": "function"
    },
    {
      "inputs": [],
      "name": "tokensSold",
      "outputs": [
        {
          "internalType": "uint256",
          "name": "",
          "type": "uint256"
        }
      ],
      "stateMutability": "view",
      "type": "function"
    },
    {
      "inputs": [
        {
          "internalType": "address",
          "name": "newOwner",
          "type": "address"
        }
      ],
      "name": "transferOwnership",
      "outputs": [],
      "stateMutability": "nonpayable",
      "type": "function"
    },
    {
      "inputs": [],
      "name": "withdrawAll",
      "outputs": [],
      "stateMutability": "nonpayable",
      "type": "function"
    },
    {
      "inputs": [
        {
          "internalType": "uint256",
          "name": "amount",
          "type": "uint256"
        }
      ],
      "name": "withdrawBalance",
      "outputs": [],
      "stateMutability": "nonpayable",
      "type": "function"
    },
    {
      "inputs": [
        {
          "internalType": "address",
          "name": "token",
          "type": "address"
        },
        {
          "internalType": "uint256",
          "name": "amount",
          "type": "uint256"
        }
      ],
      "name": "withdrawToken",
      "outputs": [],
      "stateMutability": "nonpayable",
      "type": "function"
    }
  ],
  "bytecode": "0x60806040526009805460ff60a01b19169055600f805461ffff191660011790556011805460ff191690553480156200003657600080fd5b5062000042336200005a565b6200004f600033620000aa565b600160025562000142565b600080546001600160a01b038381166001600160a01b0319831681178455604051919092169283917f8be0079c531659141344cd1fd0a4f28419497f9722a3daafe3b4186f6b6457e09190a35050565b620000b68282620000ba565b5050565b60008281526001602090815260408083206001600160a01b038516845290915290205460ff16620000b65760008281526001602081815260408084206001600160a01b0386168086529252808420805460ff19169093179092559051339285917f2f8788117e7eff1d82e926ec794901d17c78024a50270940304540a733656f0d9190a45050565b614af480620001526000396000f3fe6080604052600436106104675760003560e01c8063715018a61161024a578063b8f7a66511610139578063e3a9905b116100b6578063f2fde38b1161007a578063f2fde38b14610d5c578063f3a4674714610d7c578063f6be71d114610d91578063fc0c546a14610db1578063fefca77c14610dd157600080fd5b8063e3a9905b14610cc6578063ea49feb014610ce6578063eea6221714610d06578063f04785f214610d26578063f0ea4bfc14610d4657600080fd5b8063d547741f116100fd578063d547741f14610c37578063d6f9102b14610c57578063da76d5cd14610c77578063db0497f014610c97578063e1b318c214610cac57600080fd5b8063b8f7a66514610b97578063c138353714610bac578063c67679fb14610bc4578063c884ef8314610bd9578063d0d46a0b14610c0657600080fd5b8063a217fddf116101c7578063aad3ec961161018b578063aad3ec9614610b13578063ae0ffad214610b33578063af640d0f14610b52578063b187bd2614610b67578063b8eb354614610b8157600080fd5b8063a217fddf14610a69578063a525e17214610a7e578063a6b02bc314610a9e578063a888c2cd14610abe578063a8bde4eb14610af357600080fd5b80638da5cb5b1161020e5780638da5cb5b146109cb5780638de737f1146109e957806391d1485414610a095780639e281a9814610a295780639f4f717914610a4957600080fd5b8063715018a61461095357806375c33e0b1461096857806378e979251461097e578063853828b6146109945780638a9b29eb146109a957600080fd5b80632eb4a7ab1161036657806345dc3dd8116102e3578063562beba8116102a7578063562beba8146108805780635aa68ac0146108b85780635b23c27d146108db5780635edfec79146108fd57806370a082311461091d57600080fd5b806345dc3dd8146107d2578063491ce4d0146107f25780635070e8371461081257806350adcdb714610832578063518ab2a81461086a57600080fd5b80633b6d03ca1161032a5780633b6d03ca146107475780633c57f60e146107675780633d7faab9146107875780633e0a322d1461079d578063439f5ac2146107bd57600080fd5b80632eb4a7ab146106be5780632f2ff15d146106d457806334fcf437146106f457806336568abe146107145780633af98d391461073457600080fd5b8063144fa6d7116103f4578063248a9ca3116103b8578063248a9ca31461061457806327e235e3146106455780632b888f69146106725780632c4e722e146106885780632eb40f701461069e57600080fd5b8063144fa6d71461057457806318c08810146105945780631fa7ab75146105b45780631fc0c923146105d45780631fe9eabc146105f457600080fd5b80630d92e3e81161043b5780630d92e3e8146104ee5780630ed5a933146105125780630fb5a6b41461053257806312aef8c3146105485780631302973a1461055e57600080fd5b8062fed7001461046c57806301ffc9a7146104a2578063061c465c146104c25780630af42928146104d9575b600080fd5b34801561047857600080fd5b5060095461048d90600160a01b900460ff1681565b60405190151581526020015b60405180910390f35b3480156104ae57600080fd5b5061048d6104bd366004614403565b610df1565b3480156104ce57600080fd5b506104d7610e28565b005b3480156104e557600080fd5b5061048d610ec5565b3480156104fa57600080fd5b5061050460125481565b604051908152602001610499565b34801561051e57600080fd5b50600f5461048d9062010000900460ff1681565b34801561053e57600080fd5b5061050460045481565b34801561055457600080fd5b5061050460075481565b34801561056a57600080fd5b50610504600c5481565b34801561058057600080fd5b506104d761058f366004614291565b610ee2565b3480156105a057600080fd5b506104d76105af36600461437c565b610fba565b3480156105c057600080fd5b506105046105cf36600461437c565b611034565b3480156105e057600080fd5b506104d76105ef3660046142ab565b611063565b34801561060057600080fd5b506104d761060f36600461437c565b61136c565b34801561062057600080fd5b5061050461062f36600461437c565b6000908152600160208190526040909120015490565b34801561065157600080fd5b50610504610660366004614291565b60086020526000908152604090205481565b34801561067e57600080fd5b50610504601b5481565b34801561069457600080fd5b5061050460065481565b3480156106aa57600080fd5b506104d76106b936600461437c565b611439565b3480156106ca57600080fd5b50610504600d5481565b3480156106e057600080fd5b506104d76106ef366004614394565b611480565b34801561070057600080fd5b506104d761070f36600461437c565b6114ac565b34801561072057600080fd5b506104d761072f366004614394565b611585565b6104d76107423660046144fb565b611603565b34801561075357600080fd5b506104d7610762366004614344565b61177f565b34801561077357600080fd5b506104d761078236600461442b565b611803565b34801561079357600080fd5b5061050460055481565b3480156107a957600080fd5b506104d76107b836600461437c565b611869565b3480156107c957600080fd5b506105046118d9565b3480156107de57600080fd5b506104d76107ed36600461437c565b6118f0565b3480156107fe57600080fd5b506104d761080d366004614291565b6119bd565b34801561081e57600080fd5b506104d761082d366004614291565b611a5f565b34801561083e57600080fd5b50600a54610852906001600160a01b031681565b6040516001600160a01b039091168152602001610499565b34801561087657600080fd5b5061050460175481565b34801561088c57600080fd5b5061050461089b36600461431b565b601560209081526000928352604080842090915290825290205481565b3480156108c457600080fd5b506108cd611abc565b6040516104999291906146af565b3480156108e757600080fd5b506108f0611bd2565b604051610499919061470f565b34801561090957600080fd5b5061050461091836600461437c565b611c45565b34801561092957600080fd5b50610504610938366004614291565b6001600160a01b031660009081526008602052604090205490565b34801561095f57600080fd5b506104d7611c68565b34801561097457600080fd5b50610504601c5481565b34801561098a57600080fd5b5061050460035481565b3480156109a057600080fd5b506104d7611c9e565b3480156109b557600080fd5b506109be611ecf565b60405161049991906147f0565b3480156109d757600080fd5b506000546001600160a01b0316610852565b3480156109f557600080fd5b506104d7610a043660046143bf565b611f5d565b348015610a1557600080fd5b5061048d610a24366004614394565b612052565b348015610a3557600080fd5b506104d7610a4436600461431b565b61207d565b348015610a5557600080fd5b506104d7610a6436600461453e565b612179565b348015610a7557600080fd5b50610504600081565b348015610a8a57600080fd5b506104d7610a99366004614344565b6123cc565b348015610aaa57600080fd5b50610504610ab936600461437c565b612448565b348015610aca57600080fd5b50610ade610ad936600461437c565b61246b565b60408051928352602083019190915201610499565b348015610aff57600080fd5b506104d7610b0e36600461437c565b612499565b348015610b1f57600080fd5b506104d7610b2e36600461431b565b6125b9565b348015610b3f57600080fd5b50600f5461048d90610100900460ff1681565b348015610b5e57600080fd5b506109be6128d0565b348015610b7357600080fd5b5060115461048d9060ff1681565b348015610b8d57600080fd5b50610504600b5481565b348015610ba357600080fd5b5061048d6128dd565b348015610bb857600080fd5b50600c54600b54610ade565b348015610bd057600080fd5b506105046128fa565b348015610be557600080fd5b50610504610bf4366004614291565b60146020526000908152604090205481565b348015610c1257600080fd5b50610c26610c21366004614291565b612926565b60405161049995949392919061475e565b348015610c4357600080fd5b506104d7610c52366004614394565b612cae565b348015610c6357600080fd5b50610504610c72366004614291565b612cd5565b348015610c8357600080fd5b506104d7610c9236600461437c565b612d6c565b348015610ca357600080fd5b50610504612e68565b348015610cb857600080fd5b50600f5461048d9060ff1681565b348015610cd257600080fd5b50610ade610ce136600461437c565b612efc565b348015610cf257600080fd5b50610504610d01366004614291565b612f80565b348015610d1257600080fd5b506104d7610d2136600461437c565b612fae565b348015610d3257600080fd5b506104d7610d413660046144da565b6130a5565b348015610d5257600080fd5b5061050460185481565b348015610d6857600080fd5b506104d7610d77366004614291565b61320f565b348015610d8857600080fd5b5061048d6132a7565b348015610d9d57600080fd5b506104d7610dac36600461437c565b6132c3565b348015610dbd57600080fd5b50601354610852906001600160a01b031681565b348015610ddd57600080fd5b506104d7610dec366004614344565b613333565b60006001600160e01b03198216637965db0b60e01b1480610e2257506301ffc9a760e01b6001600160e01b03198316145b92915050565b6000546001600160a01b0316331480610e475750610e47600033612052565b610e6c5760405162461bcd60e51b8152600401610e63906148df565b60405180910390fd5b6003544210610eb25760405162461bcd60e51b815260206004820152601260248201527153616c653a2073616c65206973206c69766560701b6044820152606401610e63565b600f805462ff0000191662010000179055565b6000610ecf6118d9565b600554610edc904261497d565b11905090565b6000546001600160a01b0316331480610f015750610f01600033612052565b610f1d5760405162461bcd60e51b8152600401610e63906148df565b426010600081548110610f4057634e487b7160e01b600052603260045260246000fd5b90600052602060002090600202016000015411610f985760405162461bcd60e51b815260206004820152601660248201527510db185a5b595c8e8810db185a5b481cdd185c9d195960521b6044820152606401610e63565b601380546001600160a01b0319166001600160a01b0392909216919091179055565b6000546001600160a01b0316331480610fd95750610fd9600033612052565b610ff55760405162461bcd60e51b8152600401610e63906148df565b60058190556004546040519081527fff9eb67881f60bf89c804c5f5baf096fc4011374504513568b2825aa85c60860906020015b60405180910390a150565b60008061103f612e68565b905061105c610ab982611056866305f5e1006133af565b906133bb565b9392505050565b6000546001600160a01b03163314806110825750611082600033612052565b61109e5760405162461bcd60e51b8152600401610e63906148df565b601380546001600160a01b0319166001600160a01b0385161790556000805b83518110156113125760008382815181106110e857634e487b7160e01b600052603260045260246000fd5b60200260200101511161113d5760405162461bcd60e51b815260206004820152601a60248201527f436c61696d65723a203025206973206e6f7420616c6c6f7765640000000000006044820152606401610e63565b600084828151811061115f57634e487b7160e01b600052603260045260246000fd5b6020026020010151116111b45760405162461bcd60e51b815260206004820152601c60248201527f436c61696d65723a2074696d65206d75737420737065636966696564000000006044820152606401610e63565b6111bc6118d9565b8482815181106111dc57634e487b7160e01b600052603260045260246000fd5b60200260200101511161123d5760405162461bcd60e51b8152602060048201526024808201527f436c61696d65723a2074696d65206d75737420626520616674657220656e642060448201526374696d6560e01b6064820152608401610e63565b6010604051806040016040528086848151811061126a57634e487b7160e01b600052603260045260246000fd5b6020026020010151815260200185848151811061129757634e487b7160e01b600052603260045260246000fd5b602090810291909101810151909152825460018181018555600094855293829020835160029092020190815591015191015582518390829081106112eb57634e487b7160e01b600052603260045260246000fd5b6020026020010151826112fe919061497d565b91508061130a81614a69565b9150506110bd565b50806305f5e100146113665760405162461bcd60e51b815260206004820152601e60248201527f436c61696d65723a20496e76616c696420746f74616c2070657263656e7400006044820152606401610e63565b50505050565b6000546001600160a01b031633148061138b575061138b600033612052565b6113a75760405162461bcd60e51b8152600401610e63906148df565b600c5415806113b85750600c548110155b6114045760405162461bcd60e51b815260206004820152601760248201527f4d75737420626520626967676572207468616e206d696e0000000000000000006044820152606401610e63565b600b8190556040518181527f770427b1be4e1c22afadce4780c0ad65c0cbdd9b12543bea5a992f5bda02550790602001611029565b6000546001600160a01b03163314806114585750611458600033612052565b6114745760405162461bcd60e51b8152600401610e63906148df565b61147d81610fba565b50565b6000828152600160208190526040909120015461149d81336133c7565b6114a7838361342b565b505050565b6000546001600160a01b03163314806114cb57506114cb600033612052565b6114e75760405162461bcd60e51b8152600401610e63906148df565b6114ef6128dd565b156115505760405162461bcd60e51b815260206004820152602b60248201527f53616c653a2053616c65206973206c6976652c2072617465206368616e67652060448201526a1b9bdd08185b1b1bddd95960aa1b6064820152608401610e63565b60068190556040518181527f595a30f13a69b616c4d568e2a2b7875fdfe86e4300a049953c76ee278f8f3f1090602001611029565b6001600160a01b03811633146115f55760405162461bcd60e51b815260206004820152602f60248201527f416363657373436f6e74726f6c3a2063616e206f6e6c792072656e6f756e636560448201526e103937b632b9903337b91039b2b63360891b6064820152608401610e63565b6115ff8282613496565b5050565b61160b6128dd565b6116485760405162461bcd60e51b815260206004820152600e60248201526d53616c653a204e6f74206c69766560901b6044820152606401610e63565b60028054141561169a5760405162461bcd60e51b815260206004820152601f60248201527f5265656e7472616e637947756172643a207265656e7472616e742063616c6c006044820152606401610e63565b60028055600f5462010000900460ff16156116f05760405162461bcd60e51b815260206004820152601660248201527514d85b194e881cd85b19481a5cc818d85b98d95b195960521b6044820152606401610e63565b600954600160a01b900460ff16156117695760405162461bcd60e51b815260206004820152603660248201527f53616c653a2070726573616c652069732066756e64656420627920746f6b656e60448201527573206275742076616c7565206973206d697373696e6760501b6064820152608401610e63565b611775348484846134fd565b5050600160025550565b6000546001600160a01b031633148061179e575061179e600033612052565b6117ba5760405162461bcd60e51b8152600401610e63906148df565b600f80548215156101000261ff00199091161790556040517f2f82dda56001bd3e8726092bb940912a2b44c3994cde91f6946ec09e36870aff9061102990831515815260200190565b60068590556007849055600980546001600160a01b0319166001600160a01b0384161790556003879055600486905561183b83613860565b875161184e9060169060208b01906140e9565b50600f805460ff191691151591909117905550505050505050565b6000546001600160a01b03163314806118885750611888600033612052565b6118a45760405162461bcd60e51b8152600401610e63906148df565b60038190556040518181527fb40bc62c7614c21c292641d79509c0572ffdcf912e874169cf69162e026146c990602001611029565b60006004546003546118eb919061497d565b905090565b6000546001600160a01b031633148061190f575061190f600033612052565b61192b5760405162461bcd60e51b8152600401610e63906148df565b600b54158061193c5750600b548111155b6119885760405162461bcd60e51b815260206004820152601860248201527f4d75737420626520736d616c6c6572207468616e206d617800000000000000006044820152606401610e63565b600c8190556040518181527f46077927d83541de01a449629a0bb1dbeb03e03fd6ee2e3ba4bf2952e394335090602001611029565b6000546001600160a01b03163314806119dc57506119dc600033612052565b6119f85760405162461bcd60e51b8152600401610e63906148df565b6009805460ff60a01b19166001600160a01b038316801515600160a01b0291909117909155600a80546001600160a01b031916821790556040519081527f212b2eba76cc5f9d7a0ee5363b517577da12e63f1231d6329ed6ff838b9973c490602001611029565b6000546001600160a01b0316331480611a7e5750611a7e600033612052565b611a9a5760405162461bcd60e51b8152600401610e63906148df565b600980546001600160a01b0319166001600160a01b0392909216919091179055565b6060806000611acb60196138b1565b90506000611ad960196138be565b6001600160401b03811115611afe57634e487b7160e01b600052604160045260246000fd5b604051908082528060200260200182016040528015611b27578160200160208202803683370190505b50905060005b611b3760196138be565b811015611bc85760086000848381518110611b6257634e487b7160e01b600052603260045260246000fd5b60200260200101516001600160a01b03166001600160a01b0316815260200190815260200160002054828281518110611bab57634e487b7160e01b600052603260045260246000fd5b602090810291909101015280611bc081614a69565b915050611b2d565b5090939092509050565b60606010805480602002602001604051908101604052809291908181526020016000905b82821015611c3c57838290600052602060002090600202016040518060400160405290816000820154815260200160018201548152505081526020019060010190611bf6565b50505050905090565b600080611c506128fa565b905061105c670de0b6b3a764000061105685846133af565b6000546001600160a01b03163314611c925760405162461bcd60e51b8152600401610e63906148aa565b611c9c60006138c8565b565b6000546001600160a01b0316331480611cbd5750611cbd600033612052565b611cd95760405162461bcd60e51b8152600401610e63906148df565b478015611d1b57600080546040516001600160a01b039091169183156108fc02918491818181858888f19350505050158015611d19573d6000803e3d6000fd5b505b600954600160a01b900460ff168015611dad5750600a546040516370a0823160e01b81523060048201526000916001600160a01b0316906370a082319060240160206040518083038186803b158015611d7357600080fd5b505afa158015611d87573d6000803e3d6000fd5b505050506040513d601f19601f82011682018060405250810190611dab91906144c2565b115b1561147d57600a546001600160a01b031663a9059cbb611dd56000546001600160a01b031690565b600a546040516370a0823160e01b81523060048201526001600160a01b03909116906370a082319060240160206040518083038186803b158015611e1857600080fd5b505afa158015611e2c573d6000803e3d6000fd5b505050506040513d601f19601f82011682018060405250810190611e5091906144c2565b6040516001600160e01b031960e085901b1681526001600160a01b03909216600483015260248201526044015b602060405180830381600087803b158015611e9757600080fd5b505af1158015611eab573d6000803e3d6000fd5b505050506040513d601f19601f820116820180604052508101906115ff9190614360565b600e8054611edc90614a2e565b80601f0160208091040260200160405190810160405280929190818152602001828054611f0890614a2e565b8015611f555780601f10611f2a57610100808354040283529160200191611f55565b820191906000526020600020905b815481529060010190602001808311611f3857829003601f168201915b505050505081565b6000546001600160a01b0316331480611f7c5750611f7c600033612052565b611f985760405162461bcd60e51b8152600401610e63906148df565b611fa06128dd565b15611fed5760405162461bcd60e51b815260206004820152601e60248201527f53616c653a2043616e6e6f74207365742c2073616c65206973206c69766500006044820152606401610e63565b8161203a5760405162461bcd60e51b815260206004820152601b60248201527f53616c653a2043616e6e6f742073657420656d70747920726f6f7400000000006044820152606401610e63565b600d82905580516114a790600e9060208401906140e9565b60009182526001602090815260408084206001600160a01b0393909316845291905290205460ff1690565b6000546001600160a01b031633148061209c575061209c600033612052565b6120b85760405162461bcd60e51b8152600401610e63906148df565b600081116120d85760405162461bcd60e51b8152600401610e6390614823565b816001600160a01b031663a9059cbb6120f96000546001600160a01b031690565b6040516001600160e01b031960e084901b1681526001600160a01b03909116600482015260248101849052604401602060405180830381600087803b15801561214157600080fd5b505af1158015612155573d6000803e3d6000fd5b505050506040513d601f19601f820116820180604052508101906114a79190614360565b6121816128dd565b6121be5760405162461bcd60e51b815260206004820152600e60248201526d53616c653a204e6f74206c69766560901b6044820152606401610e63565b6002805414156122105760405162461bcd60e51b815260206004820152601f60248201527f5265656e7472616e637947756172643a207265656e7472616e742063616c6c006044820152606401610e63565b60028055600f5462010000900460ff16156122665760405162461bcd60e51b815260206004820152601660248201527514d85b194e881cd85b19481a5cc818d85b98d95b195960521b6044820152606401610e63565b600954600160a01b900460ff166122ce5760405162461bcd60e51b815260206004820152602660248201527f53616c653a2066756e64696e6720627920746f6b656e73206973206e6f7420616044820152651b1b1bddd95960d21b6064820152608401610e63565b600a54604051636eb1769f60e11b815233600482015230602482015285916001600160a01b03169063dd62ed3e9060440160206040518083038186803b15801561231757600080fd5b505afa15801561232b573d6000803e3d6000fd5b505050506040513d601f19601f8201168201806040525081019061234f91906144c2565b101561239d5760405162461bcd60e51b815260206004820152601d60248201527f53616c653a2066756e6420746f6b656e206e6f7420617070726f7665640000006044820152606401610e63565b6123a9848484846134fd565b600a546123c1906001600160a01b0316333087613918565b505060016002555050565b6000546001600160a01b03163314806123eb57506123eb600033612052565b6124075760405162461bcd60e51b8152600401610e63906148df565b6011805460ff19168215159081179091556040519081527f40729d2b340c598858cbba072277c8d947aee5384f07e2af31298966ec01ae1c90602001611029565b6000806124536128fa565b905061105c8161105685670de0b6b3a76400006133af565b6010818154811061247b57600080fd5b60009182526020909120600290910201805460019091015490915082565b6000546001600160a01b031633146124c35760405162461bcd60e51b8152600401610e63906148aa565b60105481106124e45760405162461bcd60e51b8152600401610e6390614873565b60006010828154811061250757634e487b7160e01b600052603260045260246000fd5b906000526020600020906002020190504281600001541161256a5760405162461bcd60e51b815260206004820152601f60248201527f436c61696d65723a20436c61696d20616c72656164792072656c6561736564006044820152606401610e63565b4280825560018201546040805191825260208201929092529081018390527fa43dae48621c426b50bfb75261b3fb486e6653b587e9c3eca9e6361fc27f7ba29060600160405180910390a15050565b60105481106125da5760405162461bcd60e51b8152600401610e6390614873565b6001600160a01b03821660009081526015602090815260408083208484529091529020541561264b5760405162461bcd60e51b815260206004820152601860248201527f436c61696d65723a20416c726561647920636c61696d656400000000000000006044820152606401610e63565b426010828154811061266d57634e487b7160e01b600052603260045260246000fd5b906000526020600020906002020160000154106126c55760405162461bcd60e51b8152602060048201526016602482015275436c61696d65723a204e6f7420636c61696d61626c6560501b6044820152606401610e63565b6001600160a01b0382166000908152600860205260409020546127235760405162461bcd60e51b815260206004820152601660248201527521b630b4b6b2b91d1027379020b63637b1b0ba34b7b760511b6044820152606401610e63565b60115460ff16156127765760405162461bcd60e51b815260206004820152601860248201527f436c61696d65723a20436c61696d696e672070617573656400000000000000006044820152606401610e63565b60006127828284613983565b9050600081116127d45760405162461bcd60e51b815260206004820152601760248201527f436c61696d65723a20416d6f756e74206973207a65726f0000000000000000006044820152606401610e63565b80601260008282546127e6919061497d565b90915550506001600160a01b0383166000908152601460205260408120805483929061281390849061497d565b90915550506001600160a01b038084166000908152601560209081526040808320868452909152902082905560135461284e91168483613a1a565b826001600160a01b03167f9cdcf2f7714cca3508c7f0110b04a90a80a3a8dd0e35de99689db74d28c5383e826010858154811061289b57634e487b7160e01b600052603260045260246000fd5b6000918252602091829020600160029092020101546040805193845291830152810185905260600160405180910390a2505050565b60168054611edc90614a2e565b6000600354421180156118eb57506128f36118d9565b4210905090565b600080612905612e68565b9050600061105c826110566305f5e1006006546133af90919063ffffffff16565b60105460609081908190819081906000816001600160401b0381111561295c57634e487b7160e01b600052604160045260246000fd5b604051908082528060200260200182016040528015612985578160200160208202803683370190505b5090506000826001600160401b038111156129b057634e487b7160e01b600052604160045260246000fd5b6040519080825280602002602001820160405280156129d9578160200160208202803683370190505b5090506000836001600160401b03811115612a0457634e487b7160e01b600052604160045260246000fd5b604051908082528060200260200182016040528015612a2d578160200160208202803683370190505b5090506000846001600160401b03811115612a5857634e487b7160e01b600052604160045260246000fd5b604051908082528060200260200182016040528015612a81578160200160208202803683370190505b5090506000856001600160401b03811115612aac57634e487b7160e01b600052604160045260246000fd5b604051908082528060200260200182016040528015612ad5578160200160208202803683370190505b50905060005b86811015612c9a5760108181548110612b0457634e487b7160e01b600052603260045260246000fd5b906000526020600020906002020160000154868281518110612b3657634e487b7160e01b600052603260045260246000fd5b60200260200101818152505060108181548110612b6357634e487b7160e01b600052603260045260246000fd5b906000526020600020906002020160010154858281518110612b9557634e487b7160e01b600052603260045260246000fd5b602002602001018181525050612bab818e613983565b848281518110612bcb57634e487b7160e01b600052603260045260246000fd5b60200260200101818152505060108181548110612bf857634e487b7160e01b600052603260045260246000fd5b9060005260206000209060020201600001544211838281518110612c2c57634e487b7160e01b600052603260045260246000fd5b9115156020928302919091018201526001600160a01b038e16600090815260158252604080822084835290925220548251839083908110612c7d57634e487b7160e01b600052603260045260246000fd5b602090810291909101015280612c9281614a69565b915050612adb565b50939b929a50909850965090945092505050565b60008281526001602081905260409091200154612ccb81336133c7565b6114a78383613496565b60008060005b601054811015612d48574260108281548110612d0757634e487b7160e01b600052603260045260246000fd5b9060005260206000209060020201600001541015612d3657612d298185613983565b612d33908361497d565b91505b80612d4081614a69565b915050612cdb565b506001600160a01b03831660009081526014602052604090205461105c90826149d4565b6000546001600160a01b0316331480612d8b5750612d8b600033612052565b612da75760405162461bcd60e51b8152600401610e63906148df565b60008111612dc75760405162461bcd60e51b8152600401610e6390614823565b600954600160a01b900460ff1615612e2f57600a546001600160a01b031663a9059cbb612dfc6000546001600160a01b031690565b6040516001600160e01b031960e084901b1681526001600160a01b03909116600482015260248101849052604401611e7d565b600080546040516001600160a01b039091169183156108fc02918491818181858888f193505050501580156115ff573d6000803e3d6000fd5b600080600960009054906101000a90046001600160a01b03166001600160a01b031663feaf968c6040518163ffffffff1660e01b815260040160a06040518083038186803b158015612eb957600080fd5b505afa158015612ecd573d6000803e3d6000fd5b505050506040513d601f19601f82011682018060405250810190612ef19190614595565b509195945050505050565b6000806000612f096132a7565b9050600081612f3857612f33670de0b6b3a7640000611056600654886133af90919063ffffffff16565b612f66565b612f59670de0b6b3a7640000611056600654886133af90919063ffffffff16565b600b54612f66919061497d565b90506000612f7382611034565b9196919550909350505050565b6001600160a01b0381166000908152601460209081526040808320546008909252822054610e2291906149d4565b6000546001600160a01b0316331480612fcd5750612fcd600033612052565b612fe95760405162461bcd60e51b8152600401610e63906148df565b612ff16128dd565b1580612ffe575060075481115b6130705760405162461bcd60e51b815260206004820152603d60248201527f53616c653a2053616c65206973206c6976652c20636170206368616e6765206f60448201527f6e6c7920616c6c6f77656420746f2061206869676865722076616c75650000006064820152608401610e63565b60078190556040518181527f162238f20a51a0fd11d4e4e9ea154917f3776b59af9fedaeaf42676ad580a2c790602001611029565b6000546001600160a01b031633146130cf5760405162461bcd60e51b8152600401610e63906148aa565b60105482106130f05760405162461bcd60e51b8152600401610e6390614873565b60006010838154811061311357634e487b7160e01b600052603260045260246000fd5b906000526020600020906002020190504282116131725760405162461bcd60e51b815260206004820152601f60248201527f436c61696d65723a2054696d65206d75737420626520696e20667574757265006044820152606401610e63565b805482116131c25760405162461bcd60e51b815260206004820152601960248201527f436c61696d65723a20496e76616c6964206e65772054696d65000000000000006044820152606401610e63565b8181556001810154604080519182526020820184905281018490527fefcf8cf4d7c2640bc82c86876797c8848bb8e14b58dad67fc2d7b128f65464979060600160405180910390a1505050565b6000546001600160a01b031633146132395760405162461bcd60e51b8152600401610e63906148aa565b6001600160a01b03811661329e5760405162461bcd60e51b815260206004820152602660248201527f4f776e61626c653a206e6577206f776e657220697320746865207a65726f206160448201526564647265737360d01b6064820152608401610e63565b61147d816138c8565b600f54600090610100900460ff16806118eb57506118eb610ec5565b6000546001600160a01b03163314806132e257506132e2600033612052565b6132fe5760405162461bcd60e51b8152600401610e63906148df565b60048190556040518181527f9bb10695bde7db94333a5404f0767118f3965fd73217e45f96529c3d368285af90602001611029565b6000546001600160a01b03163314806133525750613352600033612052565b61336e5760405162461bcd60e51b8152600401610e63906148df565b600f805460ff19168215159081179091556040519081527f5a93387354333593ee4e928f4c1050f3f43ca3f370542ce5de543ca1b710928890602001611029565b600061105c82846149b5565b600061105c8284614995565b6133d18282612052565b6115ff576133e9816001600160a01b03166014613a4a565b6133f4836020613a4a565b60405160200161340592919061463a565b60408051601f198184030181529082905262461bcd60e51b8252610e63916004016147f0565b6134358282612052565b6115ff5760008281526001602081815260408084206001600160a01b0386168086529252808420805460ff19169093179092559051339285917f2f8788117e7eff1d82e926ec794901d17c78024a50270940304540a733656f0d9190a45050565b6134a08282612052565b156115ff5760008281526001602090815260408083206001600160a01b0385168085529252808320805460ff1916905551339285917ff6391f5c32d9c69d2a47ea670b442974b53935d1edc7fd64eb21e047a839171b9190a45050565b6000336040516bffffffffffffffffffffffff19606083901b1660208201526034810185905290915060009060540160405160208183030381529060405280519060200120905061355183600d5483613c2b565b61355c57600061355e565b835b9350600061356b85613c41565b9050600087116135b05760405162461bcd60e51b815260206004820152601060248201526f053616c653a2076616c756520697320360841b6044820152606401610e63565b60006135bb87611c45565b9050600087116136015760405162461bcd60e51b8152602060048201526011602482015270053616c653a20616d6f756e74206973203607c1b6044820152606401610e63565b803410156136465760405162461bcd60e51b815260206004820152601260248201527129b0b6329d103637bb903130b630b731b29760711b6044820152606401610e63565b8660176000828254613658919061497d565b90915550506001600160a01b0384166000908152600860205260408120805489929061368590849061497d565b9091555050600c548810156136dc5760405162461bcd60e51b815260206004820152601960248201527f53616c653a20616d6f756e7420697320746f6f20736d616c6c000000000000006044820152606401610e63565b81158061370157506001600160a01b0384166000908152600860205260409020548210155b6137595760405162461bcd60e51b815260206004820152602360248201527f53616c653a20616d6f756e742065786365656473206d617820616c6c6f63617460448201526234b7b760e91b6064820152608401610e63565b60075460175411156137a15760405162461bcd60e51b815260206004820152601160248201527014d85b194e8818d85c081c995858da1959607a1b6044820152606401610e63565b876018546137af919061497d565b6018556137bd601933613db5565b50601b546137ca5743601b555b43601c5560006137da3483613dca565b9050801561381157604051339082156108fc029083906000818181858888f1935050505015801561380f573d6000803e3d6000fd5b505b604080518a8152602081018a90526001600160a01b038716917f8fafebcaf9d154343dad25669bfa277f4fbacd7ac6b0c4fed522580e040a0f33910160405180910390a2505050505050505050565b6009805460ff60a01b19166001600160a01b0383161515600160a01b908102919091179182905560ff9104161561147d57600a80546001600160a01b0383166001600160a01b031990911617905550565b6060600061105c83613dd6565b6000610e22825490565b600080546001600160a01b038381166001600160a01b0319831681178455604051919092169283917f8be0079c531659141344cd1fd0a4f28419497f9722a3daafe3b4186f6b6457e09190a35050565b6040516001600160a01b03808516602483015283166044820152606481018290526113669085906323b872dd60e01b906084015b60408051601f198184030181529190526020810180516001600160e01b03166001600160e01b031990931692909217909152613e32565b6001600160a01b0381166000908152600860205260408120546139a857506000610e22565b6305f5e100601084815481106139ce57634e487b7160e01b600052603260045260246000fd5b90600052602060002090600202016001015460086000856001600160a01b03166001600160a01b0316815260200190815260200160002054613a1091906149b5565b61105c9190614995565b6040516001600160a01b0383166024820152604481018290526114a790849063a9059cbb60e01b9060640161394c565b60606000613a598360026149b5565b613a6490600261497d565b6001600160401b03811115613a8957634e487b7160e01b600052604160045260246000fd5b6040519080825280601f01601f191660200182016040528015613ab3576020820181803683370190505b509050600360fc1b81600081518110613adc57634e487b7160e01b600052603260045260246000fd5b60200101906001600160f81b031916908160001a905350600f60fb1b81600181518110613b1957634e487b7160e01b600052603260045260246000fd5b60200101906001600160f81b031916908160001a9053506000613b3d8460026149b5565b613b4890600161497d565b90505b6001811115613bdc576f181899199a1a9b1b9c1cb0b131b232b360811b85600f1660108110613b8a57634e487b7160e01b600052603260045260246000fd5b1a60f81b828281518110613bae57634e487b7160e01b600052603260045260246000fd5b60200101906001600160f81b031916908160001a90535060049490941c93613bd581614a17565b9050613b4b565b50831561105c5760405162461bcd60e51b815260206004820181905260248201527f537472696e67733a20686578206c656e67746820696e73756666696369656e746044820152606401610e63565b600082613c388584613f04565b14949350505050565b6000808290506000613c54600b54611034565b600f5490915060ff16613c68579392505050565b600f5460ff1615613d6d57613c7b6132a7565b15613cf7576000613c8b85612efc565b91505060008111613cef5760405162461bcd60e51b815260206004820152602860248201527f53616c653a207573657220646f6573206e6f742068617665204643465320616c6044820152673637b1b0ba34b7b760c11b6064820152608401610e63565b949350505050565b60008211613d665760405162461bcd60e51b815260206004820152603660248201527f53616c653a207573657220686173206e6f206c6576656c20616c6c6f636174696044820152756f6e206f72206c6576656c20697320746f6f206c6f7760501b6064820152608401610e63565b5092915050565b60405162461bcd60e51b815260206004820152601760248201527f53616c653a20756e726561636861626c652073746174650000000000000000006044820152606401610e63565b600061105c836001600160a01b038416613f86565b600061105c82846149d4565b606081600001805480602002602001604051908101604052809291908181526020018280548015613e2657602002820191906000526020600020905b815481526020019060010190808311613e12575b50505050509050919050565b6000613e87826040518060400160405280602081526020017f5361666545524332303a206c6f772d6c6576656c2063616c6c206661696c6564815250856001600160a01b0316613fd59092919063ffffffff16565b8051909150156114a75780806020019051810190613ea59190614360565b6114a75760405162461bcd60e51b815260206004820152602a60248201527f5361666545524332303a204552433230206f7065726174696f6e20646964206e6044820152691bdd081cdd58d8d9595960b21b6064820152608401610e63565b600081815b8451811015613f7e576000858281518110613f3457634e487b7160e01b600052603260045260246000fd5b60200260200101519050808311613f5a5760008381526020829052604090209250613f6b565b600081815260208490526040902092505b5080613f7681614a69565b915050613f09565b509392505050565b6000818152600183016020526040812054613fcd57508154600181810184556000848152602080822090930184905584548482528286019093526040902091909155610e22565b506000610e22565b6060613cef8484600085856001600160a01b0385163b6140375760405162461bcd60e51b815260206004820152601d60248201527f416464726573733a2063616c6c20746f206e6f6e2d636f6e74726163740000006044820152606401610e63565b600080866001600160a01b03168587604051614053919061461e565b60006040518083038185875af1925050503d8060008114614090576040519150601f19603f3d011682016040523d82523d6000602084013e614095565b606091505b50915091506140a58282866140b0565b979650505050505050565b606083156140bf57508161105c565b8251156140cf5782518084602001fd5b8160405162461bcd60e51b8152600401610e6391906147f0565b8280546140f590614a2e565b90600052602060002090601f016020900481019282614117576000855561415d565b82601f1061413057805160ff191683800117855561415d565b8280016001018555821561415d579182015b8281111561415d578251825591602001919060010190614142565b5061416992915061416d565b5090565b5b80821115614169576000815560010161416e565b80356001600160a01b038116811461419957600080fd5b919050565b600082601f8301126141ae578081fd5b813560206141c36141be8361495a565b61492a565b80838252828201915082860187848660051b89010111156141e2578586fd5b855b85811015614200578135845292840192908401906001016141e4565b5090979650505050505050565b600082601f83011261421d578081fd5b81356001600160401b0381111561423657614236614a9a565b614249601f8201601f191660200161492a565b81815284602083860101111561425d578283fd5b816020850160208301379081016020019190915292915050565b805169ffffffffffffffffffff8116811461419957600080fd5b6000602082840312156142a2578081fd5b61105c82614182565b6000806000606084860312156142bf578182fd5b6142c884614182565b925060208401356001600160401b03808211156142e3578384fd5b6142ef8783880161419e565b93506040860135915080821115614304578283fd5b506143118682870161419e565b9150509250925092565b6000806040838503121561432d578182fd5b61433683614182565b946020939093013593505050565b600060208284031215614355578081fd5b813561105c81614ab0565b600060208284031215614371578081fd5b815161105c81614ab0565b60006020828403121561438d578081fd5b5035919050565b600080604083850312156143a6578182fd5b823591506143b660208401614182565b90509250929050565b600080604083850312156143d1578182fd5b8235915060208301356001600160401b038111156143ed578182fd5b6143f98582860161420d565b9150509250929050565b600060208284031215614414578081fd5b81356001600160e01b03198116811461105c578182fd5b600080600080600080600080610100898b031215614447578384fd5b88356001600160401b0381111561445c578485fd5b6144688b828c0161420d565b9850506020890135965060408901359550606089013594506080890135935061449360a08a01614182565b92506144a160c08a01614182565b915060e08901356144b181614ab0565b809150509295985092959890939650565b6000602082840312156144d3578081fd5b5051919050565b600080604083850312156144ec578182fd5b50508035926020909101359150565b60008060006060848603121561450f578081fd5b833592506020840135915060408401356001600160401b03811115614532578182fd5b6143118682870161419e565b60008060008060808587031215614553578182fd5b84359350602085013592506040850135915060608501356001600160401b0381111561457d578182fd5b6145898782880161419e565b91505092959194509250565b600080600080600060a086880312156145ac578283fd5b6145b586614277565b94506020860151935060408601519250606086015191506145d860808701614277565b90509295509295909350565b6000815180845260208085019450808401835b83811015614613578151875295820195908201906001016145f7565b509495945050505050565b600082516146308184602087016149eb565b9190910192915050565b7f416363657373436f6e74726f6c3a206163636f756e74200000000000000000008152600083516146728160178501602088016149eb565b7001034b99036b4b9b9b4b733903937b6329607d1b60179184019182015283516146a38160288401602088016149eb565b01602801949350505050565b604080825283519082018190526000906020906060840190828701845b828110156146f15781516001600160a01b0316845292840192908401906001016146cc565b5050508381038285015261470581866145e4565b9695505050505050565b602080825282518282018190526000919060409081850190868401855b828110156147515781518051855286015186850152928401929085019060010161472c565b5091979650505050505050565b60a08152600061477160a08301886145e4565b60208382038185015261478482896145e4565b9150838203604085015261479882886145e4565b84810360608601528651808252828801935090820190845b818110156147ce5784511515835293830193918301916001016147b0565b505084810360808601526147e281876145e4565b9a9950505050505050505050565b602081526000825180602084015261480f8160408501602087016149eb565b601f01601f19169190910160400192915050565b60208082526030908201527f576974686472617761626c653a20616d6f756e742073686f756c64206265206760408201526f726561746572207468616e207a65726f60801b606082015260800190565b6020808252601c908201527f436c61696d65723a204f7574206f6620626f756e647320696e64657800000000604082015260600190565b6020808252818101527f4f776e61626c653a2063616c6c6572206973206e6f7420746865206f776e6572604082015260600190565b6020808252602b908201527f41646d696e61626c653a2063616c6c6572206973206e6f7420746865206f776e60408201526a32b91037b91030b236b4b760a91b606082015260800190565b604051601f8201601f191681016001600160401b038111828210171561495257614952614a9a565b604052919050565b60006001600160401b0382111561497357614973614a9a565b5060051b60200190565b6000821982111561499057614990614a84565b500190565b6000826149b057634e487b7160e01b81526012600452602481fd5b500490565b60008160001904831182151516156149cf576149cf614a84565b500290565b6000828210156149e6576149e6614a84565b500390565b60005b83811015614a065781810151838201526020016149ee565b838111156113665750506000910152565b600081614a2657614a26614a84565b506000190190565b600181811c90821680614a4257607f821691505b60208210811415614a6357634e487b7160e01b600052602260045260246000fd5b50919050565b6000600019821415614a7d57614a7d614a84565b5060010190565b634e487b7160e01b600052601160045260246000fd5b634e487b7160e01b600052604160045260246000fd5b801515811461147d57600080fdfea2646970667358221220a44125ed6e35345e890838d180caa390f0e461f315eea726d2476fb438250e3264736f6c63430008040033",
  "linkReferences": {},
  "deployedLinkReferences": {}
}